:020000040000FA
:08000000803102288731FD2F39
:100EC800F0007008240091000800F10022008C1244
:100ED8000C1271088731642722000C160800F300F1
:100EE800730880388731692787317208403887311D
:100EF80069270800240095161508F039023895006E
:100F080015129417141321000D168E130D138C113E
:100F180022000C1623000C1221000C128C129D01C9
:100F2800080087302100990599148D1222008D162A
:100F380087317E2787318731B02787310030873165
:100F4800D0278731F2010030873173278731FF308E
:100F58008731D0278731AF2F22008D129B30003286
:100F6800890BB32F22008D162130873169278731ED
:100F7800C030873169278731043087316927873145
:100F880012308731692787312030873169278731C7
:100F98000C30873169270800F20022008C160C12E9
:100FA800F301F401F501F6017208873164278731EE
:100FB8000130F5070030F63D7608803AF1008030C0
:100FC8007102031DE92F54307502031CD82F01301C
:100FD800F3070030F43D7408803AF1008030710264
:100FE800031DF82F06307302031CD62F22000C12A3
:100FF800080020008731952F003400340034003475
:101008000034003400345F340034003400340734D2
:1010180000340734003414347F3414347F341434E7
:1010280024342A347F342A341234233413340834D1
:1010380064346234363449345534223450340034FC
:10104800053403340034003400341C342234413471
:1010580000340034413422341C340034143408344D
:101068003E3408341434083408343E340834083420
:101078000034503430340034003408340834083430
:1010880008340834003460346034003400342034C8
:1010980010340834043402343E345134493445346D
:1010A8003E34003442347F344034003442346134B6
:1010B8005134493446342134413445344B34313485
:1010C8001834143412347F341034273445344534FA
:1010D800453439343C344A344934493430340134A1
:1010E80071340934053403343634493449344934C5
:1010F800363406344934493429341E3400343634FD
:101108003634003400340034563436340034003475
:10111800083414342234413400341434143414346C
:10112800143414340034413422341434083402346E
:101138000134513409340634323449347934413471
:101148003E347E341134113411347E347F344934C2
:101158004934493436343E344134413441342234FC
:101168007F344134413422341C347F344934493487
:10117800493441347F3409340934093401343E3464
:101188004134493449347A347F34083408340834D3
:101198007F34003441347F344134003420344034C7
:1011A80041343F3401347F34083414342234413418
:1011B8007F3440344034403440347F3402340C347B
:1011C80002347F347F340434083410347F343E349E
:1011D8004134413441343E347F34093409340934CC
:1011E80006343E344134513421345E347F3409347A
:1011F800193429344634463449344934493431346D
:10120800013401347F34013401343F3440344034F4
:1012180040343F341F342034403420341F343F34AA
:101228004034383440343F3463341434083414348C
:101238006334073408347034083407346134513463
:1012480049344534433400347F3441344134003424
:101258000234043408341034203400344134413426
:101268007F3400340434023401340234043440340A
:1012780040344034403440340034013402340434BF
:101288000034203454345434543478347F3448345B
:1012980044344434383438344434443444342034C2
:1012A80038344434443448347F343834543454342F
:1012B8005434183408347E340934013402340C347C
:1012C8005234523452343E347F34083404340434B3
:1012D8007834003444347D3440340034203440348D
:1012E80044343D3400347F341034283444340034DA
:1012F800003441347F34403400347C3404341834AE
:10130800043478347C34083404340434783438347D
:1013180044344434443438347C3414341434143469
:10132800083408341434143418347C347C340834C5
:101338000434043408344834543454345434203491
:1013480004343F344434403420343C344034403452
:1013580020347C341C342034403420341C343C3455
:101368004034303440343C34443428341034283445
:1013780044340C345034503450343C3444346434A1
:1013880054344C3444340034083436344134003452
:10139800003400347F3400340034003441343634AF
:1013A80008340034103408340834103408347834DD
:0813B800463441344634783418
:020000040001F9
:04000E00E4FFFFFF0D
:00000001FF
